{
  "contractName": "Exchange",
  "abi": [
    {
      "inputs": [],
      "payable": true,
      "stateMutability": "payable",
      "type": "constructor"
    },
    {
      "anonymous": false,
      "inputs": [
        {
          "indexed": false,
          "name": "_symbolIndex",
          "type": "uint256"
        },
        {
          "indexed": false,
          "name": "_tokenSymbol",
          "type": "string"
        },
        {
          "indexed": false,
          "name": "_timestamp",
          "type": "uint256"
        }
      ],
      "name": "TokenAddedToSystem",
      "type": "event"
    },
    {
      "anonymous": false,
      "inputs": [
        {
          "indexed": true,
          "name": "_from",
          "type": "address"
        },
        {
          "indexed": true,
          "name": "_symbolIndex",
          "type": "uint256"
        },
        {
          "indexed": false,
          "name": "_amount",
          "type": "uint256"
        },
        {
          "indexed": false,
          "name": "_timestamp",
          "type": "uint256"
        }
      ],
      "name": "DepositForTokenReceived",
      "type": "event"
    },
    {
      "anonymous": false,
      "inputs": [
        {
          "indexed": true,
          "name": "_to",
          "type": "address"
        },
        {
          "indexed": true,
          "name": "_symbolIndex",
          "type": "uint256"
        },
        {
          "indexed": false,
          "name": "_amount",
          "type": "uint256"
        },
        {
          "indexed": false,
          "name": "_timestamp",
          "type": "uint256"
        }
      ],
      "name": "WithdrawalToken",
      "type": "event"
    },
    {
      "anonymous": false,
      "inputs": [
        {
          "indexed": true,
          "name": "_symbolIndex",
          "type": "uint256"
        },
        {
          "indexed": true,
          "name": "_who",
          "type": "address"
        },
        {
          "indexed": false,
          "name": "_amountTokens",
          "type": "uint256"
        },
        {
          "indexed": false,
          "name": "_priceInWei",
          "type": "uint256"
        },
        {
          "indexed": false,
          "name": "_orderKey",
          "type": "uint256"
        }
      ],
      "name": "BuyOrderCreated",
      "type": "event"
    },
    {
      "anonymous": false,
      "inputs": [
        {
          "indexed": true,
          "name": "_symbolIndex",
          "type": "uint256"
        },
        {
          "indexed": true,
          "name": "_who",
          "type": "address"
        },
        {
          "indexed": false,
          "name": "_amountTokens",
          "type": "uint256"
        },
        {
          "indexed": false,
          "name": "_priceInWei",
          "type": "uint256"
        },
        {
          "indexed": false,
          "name": "_orderKey",
          "type": "uint256"
        }
      ],
      "name": "SellOrderCreated",
      "type": "event"
    },
    {
      "constant": false,
      "inputs": [
        {
          "name": "erc20TokenAddress",
          "type": "address"
        },
        {
          "name": "_symbolName",
          "type": "string"
        }
      ],
      "name": "createToken",
      "outputs": [
        {
          "name": "",
          "type": "uint256"
        }
      ],
      "payable": false,
      "stateMutability": "nonpayable",
      "type": "function"
    },
    {
      "constant": false,
      "inputs": [
        {
          "name": "_symbolName",
          "type": "string"
        },
        {
          "name": "erc20TokenAddress",
          "type": "address"
        }
      ],
      "name": "addToken",
      "outputs": [
        {
          "name": "",
          "type": "bool"
        }
      ],
      "payable": false,
      "stateMutability": "nonpayable",
      "type": "function"
    },
    {
      "constant": true,
      "inputs": [
        {
          "name": "symbolName",
          "type": "string"
        },
        {
          "name": "_amountOfTokens",
          "type": "uint256"
        }
      ],
      "name": "hasToken",
      "outputs": [
        {
          "name": "",
          "type": "bool"
        }
      ],
      "payable": false,
      "stateMutability": "view",
      "type": "function"
    },
    {
      "constant": true,
      "inputs": [
        {
          "name": "symbolName",
          "type": "string"
        }
      ],
      "name": "hasToken",
      "outputs": [
        {
          "name": "",
          "type": "bool"
        }
      ],
      "payable": false,
      "stateMutability": "view",
      "type": "function"
    }
  ],
  "bytecode": "0x60806040526000600160006101000a81548160ff021916908360ff1602179055506106438061002f6000396000f3fe608060405260043610610057576000357c0100000000000000000000000000000000000000000000000000000000900463ffffffff168063013828071461005c5780638ea0081814610158578063b0b22c2c14610238575b600080fd5b34801561006857600080fd5b506101426004803603604081101561007f57600080fd5b81019080803573ffffffffffffffffffffffffffffffffffffffff169060200190929190803590602001906401000000008111156100bc57600080fd5b8201836020820111156100ce57600080fd5b803590602001918460018302840111640100000000831117156100f057600080fd5b91908080601f016020809104026020016040519081016040528093929190818152602001838380828437600081840152601f19601f820116905080830192505050505050509192919290505050610338565b6040518082815260200191505060405180910390f35b34801561016457600080fd5b5061021e6004803603602081101561017b57600080fd5b810190808035906020019064010000000081111561019857600080fd5b8201836020820111156101aa57600080fd5b803590602001918460018302840111640100000000831117156101cc57600080fd5b91908080601f016020809104026020016040519081016040528093929190818152602001838380828437600081840152601f19601f820116905080830192505050505050509192919290505050610465565b604051808215151515815260200191505060405180910390f35b34801561024457600080fd5b5061031e6004803603604081101561025b57600080fd5b810190808035906020019064010000000081111561027857600080fd5b82018360208201111561028a57600080fd5b803590602001918460018302840111640100000000831117156102ac57600080fd5b91908080601f016020809104026020016040519081016040528093929190818152602001838380828437600081840152601f19601f820116905080830192505050505050509192919290803573ffffffffffffffffffffffffffffffffffffffff169060200190929190505050610529565b604051808215151515815260200191505060405180910390f35b600060c0604051908101604052808473ffffffffffffffffffffffffffffffffffffffff1681526020018381526020016000815260200160008152602001600081526020016000815250506001600081819054906101000a900460ff168092919060010191906101000a81548160ff021916908360ff16021790555050826002836040518082805190602001908083835b6020831015156103ee57805182526020820191506020810190506020830392506103c9565b6001836020036101000a038019825116818451168082178552505050505050905001915050908152602001604051809103902060006101000a81548173ffffffffffffffffffffffffffffffffffffffff021916908373ffffffffffffffffffffffffffffffffffffffff16021790555092915050565b60008073ffffffffffffffffffffffffffffffffffffffff166002836040518082805190602001908083835b6020831015156104b65780518252602082019150602081019050602083039250610491565b6001836020036101000a038019825116818451168082178552505050505050905001915050908152602001604051809103902060009054906101000a900473ffffffffffffffffffffffffffffffffffffffff1673ffffffffffffffffffffffffffffffffffffffff1614159050919050565b600061053483610465565b151561060c576105448284610338565b507f6c71eb76d5d82031f490d3e44dc01d298444e569078199b14510435d81b59ff7600160009054906101000a900460ff168442604051808460ff16815260200180602001838152602001828103825284818151815260200191508051906020019080838360005b838110156105c75780820151818401526020810190506105ac565b50505050905090810190601f1680156105f45780820380516001836020036101000a031916815260200191505b5094505050505060405180910390a160019050610611565b600090505b9291505056fea165627a7a72305820fea46565f6964c81b6aa7a8288cfdc428cd247492cfcd5da262698d8deab52710029",
  "source": "pragma solidity ^0.5.0;\n\nimport \"./ERC20Token.sol\";\n\ncontract Exchange  {\n   // create a function called calculatePriceInWei\n\n    struct Order{\n        uint amountOfTokens;\n        uint8 transactionType; // 0 buy --- 1 sell\n        address tokenOwner;\n    }\n\n    struct OrderBook{\n        uint currentMarketPrice;\n        uint timestamp;\n\n        mapping(uint => Order) orders;\n        uint order_key;\n    }\n\n    struct Token {\n        address tokenContract;\n        string symbolName;\n\n        mapping(uint => OrderBook) buyBook;\n        uint currentBuyPrice;\n        uint previousBuyPrice;\n\n        mapping(uint => OrderBook) sellBook;\n        uint currentSellPrice;\n        uint previousSellPrice;\n\n    }\n\n    mapping(uint => Token)token;\n    uint8 tokenIndex = 0;\n\n\n    \n    mapping(string => address)tokenSymbolToAddress;\n\n    constructor()payable public{}\n        // Management events\n    event TokenAddedToSystem(uint _symbolIndex, string _tokenSymbol, uint _timestamp);\n\n    // Deposit/Withdrawal events\n    event DepositForTokenReceived(address indexed _from, uint indexed _symbolIndex, uint _amount, uint _timestamp);\n    event WithdrawalToken(address indexed _to, uint indexed _symbolIndex, uint _amount, uint _timestamp);\n\n       // Trading/Order Events\n    event BuyOrderCreated(uint indexed _symbolIndex, address indexed _who, uint _amountTokens, uint _priceInWei, uint _orderKey);\n    event SellOrderCreated(uint indexed _symbolIndex, address indexed _who, uint _amountTokens, uint _priceInWei, uint _orderKey);\n\n\n    // Token Management\n\n    function createToken( address erc20TokenAddress, string memory _symbolName) public returns(uint){\n       Token(erc20TokenAddress, _symbolName,0 ,0 ,0 ,0);\n       tokenIndex++;\n       tokenSymbolToAddress[_symbolName] = erc20TokenAddress;\n    }\n\n    function addToken(string memory _symbolName, address erc20TokenAddress) public returns(bool){\n        if(!hasToken(_symbolName)){\n            createToken(erc20TokenAddress, _symbolName);\n            emit TokenAddedToSystem(tokenIndex, _symbolName, now);\n            return true;\n        }else{\n            return false;\n        }\n\n    }\n\n    // function updateTokenSupply(address erc20TokenAddress, uint _amountOfTokens) external {\n    //     ERC20Token newToken = ERC20Token(erc20TokenAddress);\n    //     newToken.addTotalSupply(erc20TokenAddress, _amountOfTokens);\n    // }\n\n    function hasToken(string memory symbolName) public view returns(bool){\n     return tokenSymbolToAddress[symbolName] != address(0);\n\n    }\n\n}",
  "sourcePath": "/Users/lafountain/Desktop/BitCoin Inc./Auxilary Markets/server/contracts/Exchange.sol",
  "compiler": {
    "name": "solc",
    "version": "0.5.0+commit.1d4f565a.Emscripten.clang"
  },
  "schemaVersion": "3.0.9",
  "updatedAt": "2019-07-11T20:32:59.851Z",
  "devdoc": {
    "methods": {}
  },
  "userdoc": {
    "methods": {}
  }
}